:020000040800F2
:10000000506D0020310300085B3A0008F528000815
:10001000593A0008C1130008718C00080000000064
:10002000000000000000000000000000790200084D
:10003000851B000800000000CD020008154E0008D6
:100040004B0300084B0300084B0300084B03000858
:100050004B0300084B0300084B0300084B03000848
:100060004B0300084B0300084B0300084B03000838
:100070004B0300084B0300084B0300084B03000828
:100080004B0300084B0300084B0300084B03000818
:10009000911500084B0300084B0300084B030008B0
:1000A0004B0300084B0300084B0300084B030008F8
:1000B000F9510008095200081D5200084B030008BE
:1000C0004B0300084B0300084B0300084B030008D8
:1000D0004B030008D55D0008095F0008AD6100080A
:1000E0004B0300084B0300084B030008455200086F
:1000F0003D5700084B030008595200084B03000805
:100100004B0300084B030008315200084B03000862
:100110004B030008ED5C00084B0300084B0300088C
:100120004B0300084B0300084B0300084B03000877
:100130004B0300084B0300084B0300084B03000867
:100140004B0300084B0300084B030008E540000880
:100150004B0300084B0300084B0300084B03000847
:100160004B0300084B0300084B0300084B03000837
:100170004B0300084B0300084B0300084B03000827
:100180004B0300084B03000800F002F800F064F88D
:100190000AA090E8000C82448344AAF10107DA45E2
:1001A00001D100F059F8AFF2090EBAE80F0013F0D0
:1001B000010F18BFFB1A43F001031847C80B0100D9
:1001C000E80B01000A444FF0000C10F8013B13F05B
:1001D000070408BF10F8014B1D1108BF10F8015BA0
:1001E000641E05D010F8016B641E01F8016BF9D193
:1001F00013F0080F1EBF10F8014BAD1C0C1B09D1EA
:100200006D1E58BF01F801CBFAD505E014F8016B5B
:1002100001F8016B6D1EF9D59142D6D370470000ED
:100220000023002400250026103A28BF78C1FBD8FF
:10023000520728BF30C148BF0B607047642900F0E7
:10024000CF80732900F0F482002070471FB50EF0B4
:1002500084FE1FBD10B510BD00F03EFB1146FFF738
:10026000F5FF0AF05BFA00F05CFB03B4FFF7F2FF66
:1002700003BC09F07CFD00002A4B19680868B0E84F
:10028000F04F80F30988BFF36F8F4FF0000080F3C9
:10029000118870470000000006480068006880F37D
:1002A000088862B661B6BFF34F8FBFF36F8F00DF70
:1002B00000BF00BF08ED00E0DFF80C00016841F46A
:1002C00070010160704700BF88ED00E0EFF3098026
:1002D000BFF36F8F134B1A681EF0100F08BF20ED8D
:1002E000108A20E9F04F106008B44FF0500080F3FE
:1002F0001188BFF34F8FBFF36F8F0DF013F94FF0DD
:10030000000080F3118808BC19680868B0E8F04F55
:100310001EF0100F08BFB0EC108A80F30988BFF3FD
:100320006F8F704750010020EFF305807047000089
:100330000948804709480047FEE7FEE7FEE7FEE779
:10034000FEE7FEE7FEE7FEE7FEE7FEE704480549B5
:10035000054A064B70470000294E00088901000835
:1003600050670020506D0020506900205069002027
:10037000704700000FB4044910B503AA029800F0BA
:100380005BFA10BC5DF814FB3C01002070B50C4614
:100390000546012A05D02878800600D5EA690023A1
:1003A00002E0012305E05B1C934202D2E05C0028DE
:1003B000F9D1A869E618C01AA861286A1844286209
:1003C0002846AFF3008004E0D5E9012114F8010BC1
:1003D0009047B442F8D32846AFF3008070BD0000C8
:1003E0002DE9F0410646002410687529314616A50E
:1003F00010D0AFF30080002802DA404213A507E0D6
:1004000031688A0701D512A502E0490704D511A574
:10041000012401E0AFF3008000210A2206F1240745
:1004200009E0B0FBF2FCB0FBF2F302FB1C00303041
:1004300078541846491C0028F3D123462A463046F2
:10044000BDE8F04100F071B9000000002D0000008F
:100450002B000000200000002DE9F05F89460446D3
:100460004FF0000ADFF874B1FB44C0F820A020462A
:10047000E1688847002874D0252806D0D4E90121F6
:100480009047206A401C2062F1E700265F46204624
:10049000E16888472028054607DB312D05D2781909
:1004A00010F8200C08B10643F1E7B00701D526F09B
:1004B0000406C4F81CA00027C4F818A02A2D09D0EF
:1004C000284609F04DFC38B304EB8708303DC8F8E6
:1004D000185019E059F8041B204604EB870291617B
:1004E000E1688847012F054618D1E069002820DA25
:1004F00026F020061DE0D8F8180000EB800005EB80
:1005000040003038C8F818002046E16888470546A2
:1005100009F026FC0028EED1012F0AD02E2D08D19B
:100520002046E16888477F1C0546022F46F02006DA
:10053000C4DBA069002803DA404246F00106A0614E
:10054000F00701D026F010066C2D0BD0682D09D0D5
:100550004C2D39D06A2D35D0742D35D07A2D33D02D
:1005600016E038E0E1682F4620468847B842054645
:1005700009D16C2F26D04FF48060E16806432046F5
:100580008847054604E06C2F1AD04FF4807006436C
:100590000DB3A5F14100192802D8203546F40066B4
:1005A0004A462946204626604E46FFF747FE80B160
:1005B00001280BD0F61D26F0070000F1080956E7C8
:1005C0004020E4E78020D8E70020D6E706F10409C0
:1005D0004DE7284652E7206ABDE8F09F1608010063
:1005E000032A40F2308010F0030C00F0158011F85F
:1005F000013BBCF1020F624498BF11F801CB00F837
:10060000013B38BF11F8013BA2F1040298BF00F88A
:1006100001CB38BF00F8013B11F0030300F01E814D
:10062000083AC0F0088051F8043B083A51F804CB6E
:10063000A0E80810F5E7121D5CBF51F8043B40F834
:10064000043BAFF30080D20724BF11F8013B11F83F
:1006500001CB48BF11F8012B24BF00F8013B00F883
:1006600001CB48BF00F8012B704702F0FF0343EABB
:10067000032242EA024200F002B84FF000020429CD
:10068000C0F0128010F0030C00F01B80CCF1040CC1
:10069000BCF1020F18BF00F8012BA8BF20F8022BF5
:1006A000A1EB0C0100F00DB85FEAC17C24BF00F89B
:1006B000012B00F8012B48BF00F8012B70474FF0C9
:1006C000000200B5134694469646203922BFA0E8A2
:1006D0000C50A0E80C50B1F12001BFF4F7AF0907AE
:1006E00028BFA0E80C5048BF0CC05DF804EB89009F
:1006F00028BF40F8042B08BF704748BF20F8022BE2
:1007000011F0804F18BF00F8012B704770477047F9
:100710007047704710B500F0D3F8006810BD10B5F1
:10072000044600F0CDF8046010BD2DE9F0470D46F9
:1007300099469246044600F124080168880604D5CB
:10074000E06921F01001216000E00120A84201DDF4
:10075000471B00E00027A1697A1902EB0900081A7B
:10076000A0612078C00602D42046AFF300800026A6
:1007700008E0D4E901211AF806009047206A401CDD
:10078000761C20624E45F4DB2078C0060AD5204650
:10079000AFF3008006E0D4E9012130209047206AC1
:1007A000401C2062381EA7F10107F4DC07E0D4E901
:1007B000012118F805009047206A401C2062281E7D
:1007C000A5F10105F3DC2046AFF300802078000698
:1007D00002D50220BDE8F0870120FBE701694A1C31
:1007E00002610878704700B58FB0CDE90131002172
:1007F000059105497944CDE9031011466846FFF794
:100800002BFE0FB000BD0000E5FFFFFF10B54369F0
:1008100013B1AFF3008001E0FFF7B8FD012010BD78
:10082000127800F124010A7000224A700122EDE7DB
:1008300011684FF0FF32E9E7074B70B50D467B4476
:10084000FFF7D1FF0446284600F03EF810B14FF004
:10085000FF3070BD204670BD7B9A000010B5203A75
:10086000C0F00B80B1E81850203AA0E81850B1E869
:100870001850A0E81850BFF4F5AF5FEA027C24BF1F
:10088000B1E81850A0E8185044BF18C918C0BDE816
:1008900010405FEA827C24BF51F8043B40F8043BDF
:1008A00008BF7047D20728BF31F8023B48BF11F894
:1008B000012B28BF20F8023B48BF00F8012B7047EE
:1008C00000487047EC660020007B00F08000704715
:1008D00000487047EC6600207546FFF7F9FFAE460A
:1008E00005006946534620F00700854618B020B53C
:1008F000FFF72CFDBDE820404FF000064FF0000749
:100900004FF000084FF0000B21F00701AC46ACE8B7
:10091000C009ACE8C009ACE8C009ACE8C0098D4624
:10092000704710B50446AFF300802046BDE8104084
:10093000FFF79BBC0029816802D041F0010101E072
:1009400021F0010181607047084B10B5D3F80423F2
:1009500007490A40D0E900142143D0E9024004438A
:1009600021431143C3F8041310BD000000200140CF
:10097000E030FCFFC06C80B2704702460020126875
:100980000A4200D00120704730B542680F4B0C7905
:100990001A400B6842EA04221343436082680C4BFE
:1009A0004D791A40D1E9034323438C6844EA450456
:1009B000234313438360C26A097D22F47002491EF7
:1009C000C9B242EA0151C16230BD0000FFFEFFFC26
:1009D000FDF7FFC070B5072609290AD9C568A1F13E
:1009E0000A0404EB4404A640B543A3401D43C5607C
:1009F00007E0056901EB4104A640B543A3401D4350
:100A000005611F23072A09D2446B521E02EB8202A2
:100A100093409C4391400C43446370BD0D2A09D21E
:100A2000046BD21F02EB820293409C4391400C4323
:100A3000046370BDC46A0D3A02EB820293409C438A
:100A400091400C43C46270BD816841F08041816077
:100A50007047000038B535489FED351A9FED350ACF
:100A6000D0ED000A10EE810AF3EE0B0A80EE201A98
:100A7000BDEEC10A10EE103A642B00DD64232E484F
:100A8000DFED2E0A90ED000A20EE200ABDEEC00A2E
:100A900010EE100A002800DA4042294991ED000AC0
:100AA00020EE200ABDEEC00A10EE101A002900DA6E
:100AB0004942244C2279A2B100222271224C25788D
:100AC000012D10D0214DB5F91C403AB3B5F91A20CB
:100AD000B5F9181001B02346BDE830401CA0FFF75F
:100AE00049BC0122E9E71E4890ED000A1D48BDEE11
:100AF000C00A10EE103A90ED000A1B48BDEEC00A85
:100B000010EE102A90ED000A18A0BDEEC00A10EEFB
:100B1000101AFFF72FFC0020207038BDCAB2C1B2F6
:100B200016A00094FFF726FC38BD00001800002036
:100B300000007A4400401C46EC5B00200000C842E4
:100B4000005C0020AC020020450200206864002008
:100B50007B4225643A25643A25647D240000000028
:100B6000D0010020CC010020C80100207B43256477
:100B70003A25643A25647D24000000007B41256409
:100B80003A25643A25643A25647D240030B5244B27
:100B900000242B28197A14D0D1B3DA7903F1200577
:100BA000521CD2B205EB8105DA7155F8045CAD5CDC
:100BB000854213D1587A401CC0B2587222280AD0FC
:100BC00024E0491C1972DC71587A401C5872987ADA
:100BD000401C98721AE05C729C7215E0104D18353A
:100BE00005EB810555F8045CAA5C824204D001291A
:100BF0000FD1987A0D280CD3987A401CC0B2987205
:100C00002C2803D19C725C721C72DC71012030BDF7
:100C100003E05C729C721C72DC710020F7E700003C
:100C2000C000002030B58DB00121022003F056FD38
:100C300001210D02284603F075FD032002218DF8E5
:100C40002C000A9100248DF82F400AA9134801F0C6
:100C5000F3FB0121284603F071FD0021284603F033
:100C60006DFD069468020994CDE9070406A8FFF714
:100C70006BFE8DF8044000948DF8054002940494B6
:100C80000120074C8DF8140069462046FFF77CFED2
:100C900001212046FFF74EFE0DB030BD000402409A
:100CA0000020014070B58CB00121022003F016FD38
:100CB00001214E02304603F035FD03208DF82C0053
:100CC000012500240A958DF82F400AA9134801F048
:100CD000B3FB0121304603F031FD0021304603F023
:100CE0002DFD069468040994CDE9070406A8FFF7D2
:100CF0002BFE8DF8044000948DF805400294049476
:100D0000074C8DF8145069462046FFF73DFE01213F
:100D10002046FFF70FFE0CB070BD0000000402403B
:100D2000002101402DED028B84B009F0D3FA9FED34
:100D3000FD8AFD4FFD4D4FF4FA76002402900A2102
:100D400002A80CF01DFAFA4940F6B8324868904201
:100D500001DA401C4860DFF8DCA3DAF80C10491C0B
:100D6000CAF80C1001F0A0FC02F056FCDFF8C883B2
:100D700098F80000012806D1F048007818B988F8E2
:100D8000004001F047FBEE48006830B1DFF8B49353
:100D900099F8000003287DD053E198F8000001285D
:100DA00005D0E9480078C0B301F0C4FB5DE0E3483A
:100DB0000078012815D1E5490878401CC0B20870B8
:100DC00064280ED965200870E14888F80040047056
:100DD000E04880ED008AE04880ED008ADF4880ED41
:100DE000008ADFF87C9399F800000128D848007841
:100DF00014D058B1D94889F80040F0EE480A90ED77
:100E0000001AD44890ED000A00F0BEFED04999F8CF
:100E10000000097808430AD027E00FE00028E9D154
:100E2000D048F0EE480A90ED001ACF48EAE7B0EE5D
:100E3000480AB0EE401AF0EE400A14E0CB480078C1
:100E400010B103F0FDFC10E0C948007810B103F0C8
:100E50007FFB0AE0C74890ED001AC748D0ED000AB2
:100E6000C64890ED000A00F08FFEC54890ED000ADC
:100E7000BDEEC00A10EE100A04F010FF90B198F811
:100E8000000030B1BF48D0F80C0210B1BE48007865
:100E900040B100E0A0E0002300941A46194618462D
:100EA000019496E0DFF8E4824346D8ED020A98ED1B
:100EB000000A01F049FF00EE100ADFF8D4B2B8EEE4
:100EC000C00A83ED010A5B46DBED020A9BED000AD6
:100ED00001F0A8FF00EE100ADFF8B892B8EEC00AE1
:100EE00083ED010A4B46D9ED020A99ED000A02F0A2
:100EF00007F800EE100ADFF8A0A2B8EEC00A83EDF2
:100F0000010A5346DAED020A9AED000A02F072F87D
:100F100000EE100A44F23C10B8EEC00A83ED010A5C
:100F200002F00EFC08F024FF9C4800780628BFF46D
:100F300006AFDFE800F0041903340434FFE6009440
:100F400001949AED010ABDEEC00A10EE103A99ED37
:100F5000010AB1EE400ABDEEC00A10EE102A9BED68
:100F6000010AB1EE400A2AE0009401949AED010AC8
:100F7000BDEEC00A10EE103A99ED010AB1EE400A3A
:100F8000BDEEC00A10EE102A9BED010ABDEEC00AAC
:100F900010EE101A98ED010AB1EE400A15E0009427
:100FA00001949AED010ABDEEC00A10EE103A99EDD7
:100FB000010ABDEEC00A10EE102A9BED010ABDEE3B
:100FC000C00A10EE101A98ED010ABDEEC00A10EE2C
:100FD000100A03F029FEB2E6DFF8C481D8F8000059
:100FE000002805DD401EC8F8000044F29F1006E00E
:100FF0006C490868002803DD401E08606A483860B4
:101000006648007806280CD2DFE800F02103282883
:101010002128009401943B6819464A42104603F087
:1010200003FE6048006800280BDCD8F800000028A8
:1010300007DC002300941A4619461846019403F071
:10104000F3FD99F80000C84604280ED015E000947E
:1010500001943B68184642421146E0E7009401942F
:101060003B68184602460146D9E7002300941A4619
:1010700019461846019403F0D7FD98F80000062899
:1010800004D1A72142F20F7004F0D8FA98F80000BA
:1010900007281ED008283DD009283CD00A283BD07C
:1010A0000B283AD00C2839D00D2838D00E2837D04C
:1010B0000F2836D013288ED1DFF8F08098F8000082
:1010C000012888D105F050F9394888F800400470AB
:1010D00035E63849086850B9286840F6C41290428D
:1010E00001DA401D2860904201DB01200860286879
:1010F000B04206DD0A68012A09D1401F2860B042CB
:1011000005DC0868012802D102202E6008602A4808
:101110002968CCE052E07AE0A2E0CAE0F2E01BE10C
:1011200036E141E10000000010020020F40100203F
:101130007062002064020020ED000020E801002021
:10114000DC010020EA010020D5010020E901002097
:101150000101002004010020080100200C010020F2
:10116000EC0000201801002010010020D601002012
:10117000D4010020280200202402002020020020A8
:101180001800002000804142C4010020EC5B0020D8
:10119000005C0020145C0020285C0020C5010020B9
:1011A000EC010020F001002061BEFFFF6002002082
:1011B0000C020020C85B0020381800407C490868F9
:1011C000022800D02E607B482A680260486850B927
:1011D000686840F6C412904201DA401D686090428F
:1011E00001DB012048606868B04206DD4A68012AD8
:1011F00009D1401F6860B04205DC4868012802D16F
:1012000002206E6048606B486968001F4FE06849C3
:101210004868022800D06E6066486A68001F026055
:10122000886850B9A86840F6C412904201DA401D9F
:10123000A860904201DB01208860A868B04206DD0A
:101240008A68012A09D1401FA860B04205DC88687D
:10125000012802D10220AE6088605748A96826E0C4
:1012600053498868022802D05348AE600660C868B7
:1012700050B9E86840F6C412904201DA401DE860B7
:10128000904201DB0120C860E868B04206DDCA6810
:10129000012A09D1401FE860B04205DCC868012876
:1012A00002D10220EE60C8604348E968001F016077
:1012B00045E53F49C868022803D03F48EE60001F5B
:1012C0000660086950B9286940F6C412904201DAF4
:1012D000401D2861904201DB012008612869B0426D
:1012E00006DD0A69012A09D1401F2861B04205DCE8
:1012F0000869012802D102202E6108612E4829695F
:101300000838D4E72A490869022803D02A482E6100
:1013100008380660486950B9686940F6C4129042BE
:1013200001DA401D6861904201DB01204861686973
:10133000B04206DD4A69012A09D1401F6861B04206
:1013400005DC4869012802D102206E6148611A4912
:1013500068690C390860F2E4154844610461C460AE
:101360008460446004606E612E61EE601248AE607D
:101370006E600C382E600660001D0660001D066061
:10138000001D06600B48001F0660001D0660D6E4C5
:10139000DAF80C006421B0FBF1F0C00704D0074973
:1013A0000120C1F8A002CAE40448C0F8A042C6E483
:1013B000C85B002038180040400401400000404253
:1013C000FEE700001CB50121084603F087F94FF441
:1013D0008070009001208DF8040000218DF8061027
:1013E00003218DF805108DF807006946014801F0CA
:1013F00023F81CBD000002402DE9FE4F0024D8B3A5
:10140000D1B3CAB3C3B3401E491EC7B2CEB2521E37
:101410005B1E02F0FF099DB20121082003F05EF976
:101420000121480603F072F902218DF804104FF0F3
:10143000030B4FF000088DF806808DF805B04FF0D3
:10144000010ACDF800B08DF807A069464D4800F0BC
:10145000F3FF092200214B4801F02AF8092201215B
:10146000484801F025F84848C0F80080016841F07C
:1014700001010160021D09E0FFE70120BDE8FE8FC8
:10148000641CA4B2642C01D90220F7E71168C907D3
:10149000F6D03D48016801600168016001680160A3
:1014A000016841F01001016001680160016801609C
:1014B000354943461C31C1F80080D1F80080DDF881
:1014C00030C048EA8C7CC1F800C0D1F800C04CEABA
:1014D00007670F600F6847EA06560E600F6847EA15
:1014E00009460E600E682E430E60016821F001016E
:1014F00001604FF6F07005E0641CA4B2844201D98B
:101500000320BBE71168C907F6D12048016841F004
:10151000010101601D491C310A6822F001020A60C4
:101520001A4A0C32146844F001041460021D146855
:101530001460164A143214681460144A403213605E
:10154000121D13600A6842F001020A60016803601C
:101550000D481430016841F00201016014208DF83B
:1015600008008DF809A08DF80AB08DF80BA002A82C
:1015700002F074FA01220221034800F05BFA002015
:101580007CE70000000C0240006400400066004060
:10159000F0B589B002AC07A8CDE9000406AB05AAF6
:1015A00004A9002000F034F97A480499012281420C
:1015B0000ED100210846235C401C1944C0B2C9B2B8
:1015C0000828F8D3082901D17348027009B0F0BD8A
:1015D00000209FED721AA1F58073813B0CD0B1F50C
:1015E000C17FF3D16E4908706E486F4902786F4829
:1015F000F2B39FED6F0A51E06E490A706E490870B0
:101600006E4908706E4908706E4908706E4908701E
:101610006E4908709DF809009DF8081000EB012044
:1016200000B200EE100A6A48F8EEC00A80EE810AA5
:1016300080ED000A9DF80B009DF80A1000EB0120D8
:1016400000B200EE900A6348F8EEE00AC0EE811A9C
:10165000C0ED001A9DF80D009DF80C1000EB012064
:1016600000B200EE900AF8EEE01AC1EE810A00E046
:1016700012E05949594C0978022908D000EE100AA5
:10168000B8EEC00AC0EE010AC4ED000A9EE707F0FA
:101690007DFB84ED000A99E79FED510A514B81EDE6
:1016A000000A80ED000A9DF809009DF808104E4CD4
:1016B00000EB012000B200EE100A4C4D4D4AB8EE8E
:1016C000C00A4D4FDFF834C1C0EE010AC3ED000A75
:1016D0009DF80B009DF80A1000EB012000B200EE0F
:1016E000100AB8EEC00AC0EE010AC4ED000A9DF867
:1016F0000D009DF80C1000EB012000B200EE100A66
:101700003B49B8EEC00AC0EE010A9FED3F0AC5EDA5
:10171000000A9DF80E0000F001060E70C0F34011A3
:101720001170C0F300123A70C0F3C0078CF800705B
:10173000DFF8CCC0C0F3800011448CF800003944BD
:1017400008183049087005D185ED000A84ED000ABB
:1017500083ED000A2EB185ED000A84ED000A83EDC9
:10176000000A9DF80F002949802809D9C0F580702A
:10177000A0EB0010400000EE100AB8EEC00A06E030
:10178000C0EB0010400000EE100AB8EE400A81EDF8
:10179000000A1BE778563412E801002000007A4462
:1017A000E9010020ED000020CC010020D001002044
:1017B00000001644D7010020D4010020D6010020EB
:1017C000D50100204002002041020020A802002094
:1017D0002002002024020020C50100202802002051
:1017E0000000964304010020080100200C010020A5
:1017F000000100201C0100201D0100201E0100200E
:101800001F0100200101002000000000F000002066
:10181000F0B5224CDDE9057504EB0014D4F8B06591
:1018200016F004061670D4F8B02532D0D2080A603B
:10183000D4F8B01501F002011970D4F8B41501F014
:101840000F013970D4F8B8152970D4F8B815090A01
:101850006970D4F8B815090CA970D4F8B815090E38
:10186000E970D4F8BC152971D4F8BC15090A69715E
:10187000D4F8BC15090CA971D4F8BC15090EE9718E
:1018800048B1012804D10648016841F020010160F7
:10189000F0BD520DCBE70248001FF5E700600040A5
:1018A0001064004038B5002400910823224601212D
:1018B00000F02EF8054640F6FF7301E0641CA4B268
:1018C000284600F085F8072801D09C42F6D39C42B8
:1018D00001D3012038BD002038BD38B50024009167
:1018E00008232246214600F013F8054640F6FF7310
:1018F00001E0641CA4B2284600F06AF8072801D071
:101900009C42F6D39C4201D3012038BD002038BD53
:10191000F0B506462C48059D0468640101D50020F9
:1019200008E00468240101D5012003E00068C0003C
:1019300046D50220254C002704EB0014C4F880751E
:10194000E9B3F600D4F880753743C4F88075D4F84D
:10195000806546EA8101C4F88015D4F8801541EA13
:101960004201C4F88015D4F8842503F00F0122F059
:101970000F02C4F88425D4F884250A43C4F88425CA
:101980002979EA796B7941EA0261AA79120442EA7B
:1019900003221143C4F88C152978EA786B7841EA60
:1019A0000261AA78120442EA03221143C4F888159E
:1019B000D4F8801541F00101C4F88015F0BD01E0B4
:1019C000FF20FBE77605BDE70864004000600040AB
:1019D000174928B1012810D002281BD005207047D4
:1019E00008680A6800F0010002F002020243086879
:1019F00000F0806042EA1060704708680A6800F0F2
:101A0000010002F002020243086800F0006042EAAE
:101A10005060704708680A6800F0010002F0020296
:101A20000243086800F0805042EA9060704700006E
:101A300008640040002A426901D00A4300E08A435A
:101A4000426170477CB5174C00206D46215C2954DB
:101A5000401CC0B20828F9D3294640F20110FFF714
:101A60003CFF00202118097A2954401CC0B20828E4
:101A7000F8D369464FF48170FFF72FFF002021183B
:101A8000097C2954401CC0B20828F8D3694640F2AA
:101A90000310FFF722FF04480078002801D000F06F
:101AA00005F87CBDAE070020E80100201CB5002031
:101AB0008DF800001A48DFED1B0A90ED000A20EEB9
:101AC000200ABDEEC00A10EE101A09128DF801109E
:101AD00010EE101A8DF8021090ED010A20EE200A87
:101AE000BDEEC00A10EE101A09128DF8031010EEA8
:101AF000101A8DF8041090ED020A694620EE200AB3
:101B0000BDEEC00A10EE100A00128DF8050010EEAE
:101B1000100A8DF8060040F20510FFF7DEFE1CBD2E
:101B2000F400002000007A4430B50346002001296B
:101B300008D10022094C03E0A55C6840521CD2B2D7
:101B40009A42F9D3002908D1044A323203E0545CA6
:101B50006040491CC9B29942F9D330BDAE0700209C
:101B600010B504460020012908D10021044A03E0F1
:101B7000535C5840491CC9B2A142F9D310BD0000C2
:101B800000080020704700002DE9F04FF84B2DEDC4
:101B9000068B83B0187808B1012805D1F548F64ABC
:101BA0000078A0B382EC030A18789FEDF49ADFED79
:101BB000F42ADFEDF43A4FF4E1649FEDF32AF349A0
:101BC00040F2DC579FEDF23AF24ADFEDF31ADFED17
:101BD000F30A9FEDF38A03281DD002287DD192EDF0
:101BE000000A40F24C4B40F26C7A20EE031AB0EE41
:101BF000C11A11EE100A884270DDB5EEC00AF1EE8E
:101C000010FAB0EE614A6ADD10EE224A16E1FFE7F3
:101C100003F04AF8C8E792ED000A4FF4966520EE0B
:101C2000031AB0EEC11A11EE100A88420EDDB5EEAD
:101C3000C00AF1EE10FAB0EE614A02DD10EE224A5F
:101C400001E000EE224A84EE201A01E0B0EE481ACC
:101C5000D44890ED000A60EE032AF0EEE22A12EE7C
:101C6000900A88420EDDB5EEC00AF1EE10FADFED03
:101C7000CE2A02DD50EE221A01E040EE221A81EE59
:101C8000A00A01E0B0EE480A61EE098A23EE800A5C
:101C9000C648F0EEE80AC0EE029A10EE901AB0EED6
:101CA000480A814254DDB0EEE91A11EE101A814261
:101CB0004EDD69EE820AB0EE688AB6EE001AB0EE2A
:101CC000680A00EEC18A00EE810AB5EEC08AF1EE24
:101CD00010FA08DDB5EEC00A02E0D1E1B1E0ABE0F8
:101CE000F1EE10FA09D3B5EEC08AF1EE10FA71D216
:101CF000B5EEC00AF1EE10FA6CDDB0EEC00A10EEDF
:101D0000100A0DF0B9F841EC1A0BB0EEC80A10EE4B
:101D1000100A0DF0B1F841EC100BB0EE4A1AF0EEDB
:101D20006A1A07F0ABF851EC100B0CF037FA00EE22
:101D3000100AF5EEC08AF1EE10FA04DD38EEC08A22
:101D400038EE800A46E038EE808A38EEC00A41E07C
:101D500010EE901A81422FDAB0EEE91A11EE101A45
:101D6000814229DD11EE100A0DF086F89FED901BDF
:101D700053EC112B0CF08AFD9FED8F1B53EC112BB4
:101D80000CF084FD0CF00AFA00EE100ADFED8C0A6C
:101D9000B4EEE00AF1EE10FA01D2B0EE600AF5EE10
:101DA000C09AF1EE10FA02DDB1EE408A12E0B0EE18
:101DB000408AB1EE400A0DE010EE901A814209DD32
:101DC000F0EEE90A10EE901A814203DAB0EE688A6A
:101DD000B0EE680AC8EE091A9FED7A1A9FED722AD2
:101DE000794B7A4AF0EE420A41EE810AFDEEE01AA2
:101DF000F0EE420A11EE901AC0EE091A196041EE97
:101E0000810ABDEEE00A10EE100A1060A84201DA65
:101E1000156002E0A04200DD1460A94201DA1D60F5
:101E200002E0A14200DD1C60196810680023CDE9C2
:101E300000011A46194620E100EE224A84EE201ADB
:101E400001E0B0EE481A574890ED000A60EE032A10
:101E5000F0EEE22A12EE900A88420DDDB5EEC00ADD
:101E6000F1EE10FADFED502A02DD50EE221A01E009
:101E700040EE221A81EEA08A61EE090A4B4D40F233
:101E800014564FF4C8634FF4AF6240F20E6840F24C
:101E9000AA5923EE881A81EE020AB0EEE01A11EE7A
:101EA000100AA8422FDDF0EEC01A11EE900AA842E7
:101EB00029DDF5EEC00ADFF818C1F1EE10FA13DDE6
:101EC000C0EE891A40F23A71404611EE907A6745A9
:101ED00003DD4FF4EB6140F22C60B5EEC00AF1EE89
:101EE00010FA0DDD0F4678E0C1EE091A484640F2BF
:101EF000465111EE907A6745EFDD10463146ECE72A
:101F00000746084669E011EE100AA84210DAF0EE22
:101F1000C01A11EE900AA8420ADDB5EEC00AF1EE31
:101F200010FA02DD1746184657E01F46104654E0E7
:101F300011EE100AA8424FDDF0EEC01A11EE900A21
:101F4000A84249DAF5EEC00ADFED221AF1EE10FAE6
:101F500080EE892A62EE211AFDEEE11A11EE900A56
:101F600002DD00F5C86001E000F5AF60074634E02F
:101F7000C5010020ED000020E05B0020CEC7133F2C
:101F800000004843CEC7933FF628DC3ECDCC4C3D05
:101F90000000004320020020CDCC4C3D3333733F82
:101FA00000000000280200200080BB446F12833A2A
:101FB000000000C01E85DB3F000000000000E03F85
:101FC000E372EC3D000096431C0200201802002042
:101FD0009A99993E0000C842384611EE101AA9425B
:101FE00037DDB0EEC01A11EE101AA94231DDF5EE60
:101FF000C00AF1EE10FA15DD474500DA47464045C4
:1020000000DA4046391A00D54942962921DAB5EE60
:10201000C00AF1EE10FA02DD2746184628E01F46F6
:10202000204625E049468F4200DD4F46884200DDCC
:102030000846391A00D5494264290ADAB5EEC00AC1
:10204000F1EE10FA02DD3746104611E01746304631
:102050000EE05946884201DA584602E0504500DD5C
:1020600050468F4201DA0F4602E0574500DD5746E1
:102070000023CDE900071A461946002002F0D4FDDE
:1020800003B0BDEC068BBDE8F08F00001CB501214C
:10209000082002F023FB0820009000208DF80400A7
:1020A00003208DF8050001208DF8070069460248DD
:1020B00000F0C2F91CBD0000000C0240F0B5012187
:1020C00089B0084602F022FB0121032002F006FB42
:1020D00003258DF8055002264FF400408DF804606A
:1020E00001242B4F00908DF806408DF8074069467B
:1020F000384600F0A1F98DF805508DF804608DF890
:1021000006408DF807400820224C00906946204682
:1021100000F092F901220F21384600F0C9F901229E
:102120000321204600F0C4F902A803F0ADFD00240D
:102130004FF6FF70ADF8084003907507ADF81040FA
:10214000ADF80A4002A9284603F060FD00231A46B4
:102150000321284603F07BFB05A803F0FBFBADF849
:102160001C4005A9284603F09FFB0121284603F0E7
:1021700053FB01221146284603F0F4FB00212846B8
:1021800003F01AFD0121284603F04CFB09B0F0BD15
:10219000000002400004024030B589B00121022055
:1021A00002F0B4FA0121022002F098FA30200390E4
:1021B00003208DF8110002208DF8100001208DF809
:1021C0001200224C8DF8130003A9204600F034F9C8
:1021D00002220421204600F06BF90222052120464C
:1021E00000F066F9684603F04FFD00244FF6FF70DB
:1021F000174DADF800400190ADF80840ADF8024031
:102200006946284603F002FD00231A4603212846AA
:1022100003F01DFB05A803F09DFBADF81C4005A9CC
:10222000284603F041FB0121284603F0F5FA01227C
:102230001146284603F096FB0021284603F0BCFC1B
:102240000121284603F0EEFA09B030BD0004024037
:102250000004004030B589B00121042002F056FA94
:102260000121022002F03AFAC020039003208DF8E9
:10227000110002208DF8100001208DF81200224C70
:102280008DF8130003A9204600F0D6F8022206219B
:10229000204600F00DF902220721204600F008F93F
:1022A000684603F0F1FC00244FF6FF70174DADF8BF
:1022B00000400190ADF80840ADF80240694628465C
:1022C00003F0A4FC00231A460321284603F0BFFABA
:1022D00005A803F03FFBADF81C4005A9284603F014
:1022E000E3FA0121284603F097FA01221146284615
:1022F00003F038FB0021284603F05EFC012128464C
:1023000003F090FA09B030BD00040240000800401C
:1023100030B589B00121082002F0F8F90121084602
:1023200002F0DCF9274C02220021204600F0C0F820
:1023300002220121204600F0BBF802218DF8111085
:102340008DF81010012103208DF8121003908DF8E4
:10235000131003A9204600F06FF8684603F094FCC0
:1023600000244FF6FF70184DADF800400190ADF815
:102370000840ADF802406946284603F047FC0023B8
:102380001A460321284603F062FA05A803F0E2FA90
:10239000ADF81C4005A9284603F086FA012128461D
:1023A00003F03AFA01221146284603F0DBFA002135
:1023B000284603F001FC0121284603F033FA09B056
:1023C00030BD000000000240000C0040B5EEC00A25
:1023D0000E48F1EE10FA04D2B1EE400A4FF0FF3190
:1023E00000E00121FDEEC00A8160C0ED000AF8EEB8
:1023F000E00A30EE600ADFED060A20EE200ABDEEAC
:10240000C00A80ED010A014870470000580300200F
:1024100000007A441CB505A0D0E90010CDE90010F9
:1024200069460448FFF73EFA1CBD000001010101A6
:102430000101010178563412F0B5002201274FF056
:10244000030C0B6807FA02F52B40AB422CD106684F
:1024500053000CFA03F4A64306600E79D0F800E0AE
:102460009E4046EA0E0606600E79012E01D0022E2D
:1024700012D18668A64386604E79D0F808E09E4067
:1024800046EA0E0686604668AE43466045688E7929
:102490009640B6B235434560C568A543C560CC7962
:1024A0009C40C3681C43C460521C102AC9D3F0BDB1
:1024B0004B07DB0E9A40C90810B500EB8100016A9A
:1024C0000F249C40A1430162016A1143016210BDC7
:1024D0000183704710B50A4C0146072301222046AC
:1024E000FEF778FA2046FEF7AFFA02212046FEF703
:1024F00044FA0028F9D02046BDE81040FEF73ABA69
:102500000020014010B50A4C014607230122204655
:10251000FEF760FA2046FEF797FA02212046FEF702
:102520002CFA0028F9D02046BDE81040FEF722BA68
:1025300000210140F0B44F4850494F4F06785048B1
:102540000D7804784F4803789FED4F1A4F4ADFED1E
:10255000501A9FED502A97ED000A4F484F49F1EE6F
:10256000400A56B1012E08D0092B68D2DFE803F0EB
:102570006745484B5053585B6400092B24D2DFE871
:1025800003F02305080B1013181B200080ED000A30
:102590000CE080ED000A01E080ED001AC2ED000AB7
:1025A00055E0C0ED000AF9E7C0ED000A82ED001A1F
:1025B0004DE0C0ED000A01E080ED001A82ED000A56
:1025C00045E080ED000AF9E780ED001ADFED340AFE
:1025D00082ED001A012D04D0012C07D081ED001AE4
:1025E00035E080EE201A21EE020A03E080EE201A88
:1025F00021EE210A81ED000A29E080ED000A0CE0BD
:1026000080ED000A01E080ED001AC1ED001A0EE035
:10261000C0ED000AF9E7C0ED000A81ED001A06E0FE
:10262000C0ED000A01E080ED001A81ED002A012DC5
:1026300008D0012C09D00AE080ED000AF5E780ED12
:10264000001AEAE781ED002A01E0C1ED001AD0EDA1
:10265000000A9FED141A80EE810A80ED000AD2ED87
:10266000001AC1EE810AC2ED000A91ED001AF0BC19
:10267000FFF78ABAC5010020C801002042020020ED
:1026800043020020D80100200000000024020020A6
:10269000DB0FC9BFDB0FC93F20020020280200204A
:1026A0000000FA4300007A4410B502202DED048B9F
:1026B00002F0A6F8394C2060032002F0A1F8606017
:1026C000042002F09DF8A060052002F099F834493A
:1026D000E060097806291BD2DFE801F04903505079
:1026E00049502168494200EE101A6168F8EEC09A1C
:1026F000494200EE101AA168B8EEC09A494200EEB5
:10270000101A4042F8EEC08A00EE100AB8EEC08AF5
:102710009FED241A244869EE810A90ED000A2348AF
:1027200060EE801AD0ED000A214881EEA02A69EE01
:10273000011A61EE801A80ED002A81EEA02A68EE6F
:10274000811A1C4828EE011A61EE801A21EE000A57
:1027500080EE201A80ED002A174881EEA02A80ED35
:10276000002A164880ED001ABDEC048B10BD94EDD4
:10277000000AF8EEC09A94ED010ABCE794ED000A55
:102780006168F8EEC09A494200EE101AB8EEC09A9D
:1027900094ED020AF8EEC08AB6E70000B0620020AD
:1027A000C50100200000C842300200202C02002099
:1027B000EC5B0020005C0020145C0020285C002002
:1027C0002DE9F04100250E4607462C4608E0384624
:1027D000FFF780FE0544052007F026FD641CE4B2E7
:1027E000B442F4D3B5FBF6F080B2BDE8F08100004E
:1027F00010B50820FFF786FE0BF0F8FF9FED0E1BCB
:1028000053EC112B0CF042F89FED0D1B53EC112BE8
:102810000CF03CF89FED0C1B53EC112B0CF036F830
:102820009FED0B1B53EC112B0CF030F80BF0B6FCAA
:1028300000EE100A10BD00006666666666660A4015
:1028400000000000000026400000008014AEEF3FB2
:10285000000000000000303F4069806880B270478F
:10286000D0F8CC000068C0F341407047084490F8AD
:102870009F03704710B5002204461346C0F810238A
:1028800004EB8200C0F81833C0F85433A01880F865
:102890009033521CD2B20F2AF2D30820A4F8B60308
:1028A000204605F059F9204604F04EFF204604F07A
:1028B0008CFE0121204605F0AFF9204604F0C5FE4C
:1028C000204604F067FF002010BDD0F810037047C9
:1028D000D0F81403704710B505F029F9002010BD99
:1028E0000022431883F89F2300EB4113C3F8C4234D
:1028F00005F06CB8FEE7000070B50D4C0025C4F87B
:10290000A8520C48016821F440010160016841F4BB
:1029100080010160C4F8AC52012004F52A7407F06C
:102920009FFC0120206007F09BFC256070BD00002B
:1029300000804042000402401CB50121022001F049
:10294000CDFE4FF44060012400908DF8044000203B
:102950008DF8060003208DF805008DF807406946C4
:102960000448FFF769FD0448C0F8A842C0F8AC422B
:102970001CBD0000000402400080404270B50D4CB8
:102980000026C4F8A8620C48016821F440010160E7
:10299000016841F4800101600125C4F8AC52284669
:1029A00004F52A7407F05CFC2560012007F058FC50
:1029B000266070BD00804042000402402DE9F047CF
:1029C000814618480025016821F440010160016832
:1029D0000160154E2C462F464FF00108C6F8A8722C
:1029E000012007F03DFCC6F8A8826806D6F82C1234
:1029F000000E11B140F0010501E020F001050120B9
:102A000007F02EFC641CE4B2082CE7D3B9F1000FE8
:102A100004D0FFF7B3FF2846BDE8F087FFF76CFF4F
:102A2000F9E70000000402400080404270B50D4606
:102A3000044600F01BF8204600F0B0F800F05EF805
:102A4000284600F0ABF800F059F800F00FF844F019
:102A5000010000F0A3F800F051F80120FFF7AEFFED
:102A6000044600F02BF8204670BD000070B51148F8
:102A7000016821F440010160016841F480010160B6
:102A80000D4C0120C4F8AC02D4F82C1200290FD050
:102A9000C4F8A80207F0E4FB0025C4F8AC52D4F84F
:102AA0002C02002804D1012007F0DAFBC4F8A85258
:102AB00070BD000000040240008040420D4810B587
:102AC000016821F440010160016841F48001016066
:102AD000094C0020C4F8A802C4F8AC02012004F597
:102AE0002A7407F0BDFB012020606060BDE8104043
:102AF00007F0B6BB000402400080404270B51248A7
:102B00000024016821F440010160016801600F4D5B
:102B10000126C5F8AC62304607F0A2FBC5F8A862F2
:102B200007E0641CE4B2322C03D9FFF7C7FF002092
:102B300070BD012007F094FBD5F82C020028F0D1DD
:102B4000C5F8A802012070BD000402400080404288
:102B50002DE9F0411D4614460F468046069EFFF7BC
:102B600065FF621CFF21C4F1080301FA02F22B4445
:102B70005B1ED9400A43C5F108018E40D2B2F1B2C2
:102B8000C4F10703D940104040EA010239464046EB
:102B900000F034F80120BDE8F08100002DE9F0419B
:102BA00005461448016821F440010160016841F4C0
:102BB00080010160104E0027C6F8A8723C464FF015
:102BC0000108E809C6F8AC026806050E012007F006
:102BD00047FBC6F8A882012007F042FBC6F8A8729E
:102BE000012007F03DFB641CE4B2082CE9D3BDE8EA
:102BF000F0810000000402400080404270B515469C
:102C00000E460446FFF732FF2046FFF7C7FFFFF7E7
:102C100075FF3046FFF7C2FFFFF770FF2846FFF74A
:102C2000BDFFFFF76BFFFFF749FF012070BD0000FC
:102C30000F4820B5811C021D07F06AFB0D48406853
:102C4000B0F57A7F12DB0A491E39CA8B8A810B8C58
:102C5000CB81488C08820D88521BCA834A889A1AF5
:102C60000A848A88801A00F580404884204620BD66
:102C70008664002070620020164820B5811C021D69
:102C800007F0B6FB1448154A154943680120B3F50F
:102C90007A7F02DA0860107019E0124B5D6815B98E
:102CA0000025157058604FF496700860094918396E
:102CB0000A8B4A824B8B8B82888BC882CD88521BB1
:102CC0000A830A899A1A4A834A89801A8883204685
:102CD00020BD00008064002070620020C40100203C
:102CE00040000020200100200021D020FFF79EBEE0
:102CF00008B507F0EFFA0F4F0D4C4FF47A7507F156
:102D0000180807F11E0600900A2168460AF038FAF2
:102D10006068A84207DA4146B81D00F00DF8314658
:102D2000044800F009F8FFF783FFFFF7A5FFEBE782
:102D300070620020686400200A8802804A8842800D
:102D400089888180704700002E4930EEC00A2E48E5
:102D5000D1ED070A2E4A90ED001A70EE600A2B485A
:102D600060EE810A90ED001A41EE000A91ED061A1C
:102D700070EE810A10EE900AC1ED060A904203DD62
:102D8000DFED240AC1ED060A10EE900A224A9042B5
:102D900003D9DFED220AC1ED060A81ED070A887822
:102DA00048B3B0EE600AF7EE000AB5EEC00AF1EEE5
:102DB00010FA03DD30EE600A81ED060AB5EEC00AB6
:102DC000F1EE10FA03D230EE200A81ED060A10EE81
:102DD000100AB0F1804F0ADAB0F1404F07D29FEDF0
:102DE000100A81ED060A087940F0010002E0087936
:102DF00020F00100087191ED060ABDEEC00A10EE48
:102E0000100A704764020020CC010020D00100208D
:102E10000078824600788246007882C6007882C6B2
:102E2000000000002E4930EEC00A2E48D1ED0A0AFB
:102E30002E4A90ED001A70EE600A2B4860EE810A6F
:102E400090ED001A41EE000A91ED091A70EE810A28
:102E500010EE900AC1ED090A904203DDDFED240A6D
:102E6000C1ED090A10EE900A224A904203D9DFED23
:102E7000220AC1ED090A81ED0A0A887848B3B0EE4A
:102E8000600AF7EE000AB5EEC00AF1EE10FA03DDB3
:102E900030EE600A81ED090AB5EEC00AF1EE10FAD3
:102EA00003D230EE200A81ED090A10EE100AB0F1CB
:102EB000804F0ADAB0F1404F07D29FED100A81ED42
:102EC000090A087940F0020002E0087920F00200C7
:102ED000087191ED090ABDEEC00A10EE100A7047A4
:102EE00064020020CC010020D0010020007882463E
:102EF00000788246007882C6007882C60000000012
:102F0000334930EEC00A3348D1ED0D0A334A90ED13
:102F1000001A70EE600A304860EE810A90ED001AE7
:102F200041EE000A91ED0C1A70EE810A10EE900A43
:102F3000C1ED0C0A904203DDDFED290AC1ED0C0A58
:102F400010EE900A274A904203D9DFED270AC1ED1F
:102F50000C0A264881ED0D0ADFED250A00780328CA
:102F600003D0022801D0052801D1C1ED0C0A8878D0
:102F700038B391ED0C0AB7EE001AB5EEC00AF1EEC7
:102F800010FA03DD30EE410A81ED0C0AB5EEC00AFD
:102F9000F1EE10FA03D230EE010A81ED0C0A10EEC8
:102FA000100AB0F1804F08DAB0F1404F05D2C1ED00
:102FB0000C0A087940F0040002E0087920F00400CF
:102FC000087191ED0C0ABDEEC00A10EE100A7047B0
:102FD00064020020CC010020D0010020007882464D
:102FE00000788246007882C6007882C6C50100203B
:102FF00000000000384930EEC00A3848D1ED100A10
:10300000384A90ED001A70EE600A354860EE810A89
:1030100090ED001A41EE000A91ED0F1A70EE810A50
:1030200010EE900AC1ED0F0A904203DDDFED2E0A8B
:10303000C1ED0F0A10EE900A2C4A904203D9DFED41
:103040002C0AC1ED0F0A2B4881ED100ADFED2A0A88
:103050000078032805D0022803D0052801D00128D4
:1030600001D1C1ED0F0A887878B391ED0F0AB7EE60
:10307000001AB5EEC00AF1EE10FA03DD30EE410A97
:1030800081ED0F0AB5EEC00AF1EE10FA03D230EE70
:10309000010A81ED0F0A10EE100AB0F1804F08DA34
:1030A000B0F1404F05D2C1ED0F0A087940F0080099
:1030B00002E0087920F00800087108790F2804D18F
:1030C000002088700122CA70087191ED0F0ABDEED0
:1030D000C00A10EE100A704764020020CC010020E4
:1030E000D00100200078824600788246007882C6AF
:1030F000007882C6C50100200000000030B50446FB
:10310000F348F34D01220078F249AD1C012806D0A6
:1031100002287DD003287CD00020087030BD0A70C2
:10312000E0782870207968706078A870A078E870DE
:10313000A0790022C0F30011281D09F0D3F9A0796D
:103140000122C0F38011281D09F0CCF9A0790222D8
:10315000C109281D09F0C6F9A0790322C0F3401166
:10316000281D09F0BFF9607900F00F000F280CD07E
:10317000C107C0F341001AD0002863D0012863D0F2
:10318000022867D0032825D166E004220021281DEB
:1031900009F0A8F905220021281D09F0A3F906224B
:1031A0000021281D09F09EF9072200210FE030B10F
:1031B000012806D0022806D003280BD105E00422FE
:1031C00004E0052202E0062200E007220121281D7A
:1031D00009F088F9A0790822C0F38001281D09F0C0
:1031E00081F9A0790922C0F3C001281D09F07AF9FC
:1031F000A0790A2200F00101281D09F073F9A079D5
:103200000B22C0F34001281D09F06CF9607901E040
:1032100028E0B9E0C0F300110C22281D09F062F982
:1032200060790D22C0F34011281D09F05BF9607927
:103230000E22C0F38011281D09F054F96079C109EC
:103240000F2235E1042200E006220121281D09F0A9
:1032500049F9B6E7062200E004220121281D09F001
:1032600041F9B2E70A70A179802011B9E17901B979
:10327000A071A1792970217A11B9617A01B92072FE
:10328000217AC1F1FF016970A17A11B9E17A01B91E
:10329000A072A17AA970217B01B92073207B04223E
:1032A000C0F1FF00E870A07800F00101281D09F0CE
:1032B00019F9A0780522C0F3C001281D09F012F900
:1032C000A0780622C0F34001281D09F00BF9A07870
:1032D0000722C0F38001281D09F004F9A07800221C
:1032E000C0F34011281D09F0FDF8A0780322C0F3B7
:1032F0000011281D09F0F6F8A0780122C0F3801112
:10330000281D09F0EFF8A0780222C109281D09F054
:10331000E9F8E0780A2200F00101281D09F0E2F83E
:10332000E0780B22C0F34001281D09F0DBF820797A
:10333000FF2825D000210822281D09F0D3F8607944
:10334000FF281FD000210922281D09F0CBF8E078C2
:103350000E22C0F30011281D09F0C4F8E0780D22F8
:10336000C0F34011281D09F0BDF8E0780F22C0F32A
:103370008011281D09F0B6F8E078C1090C2297E009
:103380000121D8E70121DEE70A70E0782870207972
:1033900068706079A870A079E8706078002200F009
:1033A0000101281D09F09EF860780322C0F3400156
:1033B000281D09F097F860780122C0F38001281DCC
:1033C00009F090F860780222C0F3C001281D09F0CE
:1033D00089F820780A22C0F30011281D09F082F82C
:1033E00020780B22C0F34011281D09F07BF82078CB
:1033F0000822C0F38011281D09F074F820780922F2
:10340000C109281D09F06EF820780C2200F0010196
:10341000281D09F067F820780D22C0F34001281D0F
:1034200009F060F820780E22C0F38001281D09F011
:1034300059F820780F22C0F3C001281D09F052F876
:10344000A07800F00F000F2811D0C107C0F3410091
:103450001FD090B3012832D0022836D003287FF441
:103460005DAE04220121281D09F03CF818E0042279
:103470000021281D09F036F805220021281D09F039
:1034800031F806220021281D09F02CF8072200211E
:103490000EE038B1012807D0022807D00328DED17A
:1034A000072204E0042202E0052200E006220121B6
:1034B000281DBDE8304009F015B8042200E00622BE
:1034C0000121281D09F00EF8EEE70622CAE70000E8
:1034D000FC0200204800002001490020888070473D
:1034E000FE0200201CB50121102001F0F7F8002198
:1034F0008DF80410032101208DF8051000908DF83F
:10350000070069460148FEF797FF1CBD0010024006
:1035100000EE100AB7EE001A70B5F8EE400A39480E
:10352000394D002281EE200ADFED350A037A20EEC4
:10353000200A4BB1C271C282028342838283D5F8D2
:103540000032012B00D10272D5F80032012463B998
:10355000037A53B9C471438B5B1C9BB243838B4288
:1035600003D94283038B5B1C0383DFED280A068BA0
:1035700080EE801AFCEEC10A10EE903A9BB2B34284
:1035800002D20472032070BDC379B3B3D5F8003200
:10359000012B09D1838B5B1C9BB283838B4203D9A4
:1035A0008283C18A491CC182DFED190A80EE801A2C
:1035B000FCEEC10A10EE901ADFED160A8AB2C18A3B
:1035C0008A420ED280EE801ABCEEC11A11EE102A89
:1035D00092B28A4205D9D5F8001271B9047202205C
:1035E00070BD80EE801ABCEEC10A10EE102A92B2B5
:1035F0008A4203D20472012070BDFFE70020FBE77E
:1036000000007A44200000200000424200001644DE
:10361000000048420000FA432DE9F04700216420F1
:10362000FFF776FF394D00212A68AAB3012A64D139
:10363000374EDFF8E090DFF8E0C0384ADFF8E0808E
:10364000DFF8E0A0384C4FF496774FF4FA73012876
:1036500055D0022851D12960C6F8A0122170C9F8AE
:103660000070CCF8003053611361D36093605360F5
:103670001360C8F81410C8F81010C8F80C10C8F877
:103680000810C8F80410C8F800105046BDE8F0470C
:1036900001221E2102F066B9244D05F118039C1D7C
:1036A000012805D0224A9288D60509D5960507D566
:1036B0002049087810B10020087007E00120FBE7DE
:1036C000022803D096070BD5520709D51946A81D25
:1036D000FFF732FB2146BDE8F0471448FFF72CBB4B
:1036E00003280AD1144A01201070144A1078401C93
:1036F000C0B21070012800D91170BDE8F0872078A1
:10370000401CC0B220701528A5D0F6E7DC010020CF
:1037100000004042EC010020F0010020F4010020F4
:10372000C85B002000040140EA010020686400201A
:10373000FE020020ED000020B2020020AC020020BA
:1037400000EE900A41421E4AB8EEE01A00EE901ACE
:1037500000B592ED010AF8EEE00A09F0AFF900EECB
:10376000900A82ED010A174AB8EEE01A00EE901AAC
:1037700092ED010AF8EEE00A09F0A0F900EE900AD5
:1037800082ED010A104AB8EEE01A00EE901A92EDAE
:10379000010AF8EEE00A09F091F900EE900A82EDD4
:1037A000010A0A4AB8EEE01A00EE901A92ED010AF8
:1037B000F8EEE00A09F082F982ED010A00BD00008E
:1037C000EC5B0020005C0020145C0020285C0020E2
:1037D00070B53C21D020FFF729F904463B21D020C9
:1037E000FFF724F904EB00201F4C3E21E083D0209A
:1037F000FFF71CF905463D21D020FFF717F905EB2F
:10380000002020844021D020FFF710F905463F21F9
:10381000D020FFF70BF905EB0020144900B26084BB
:103820004A680121124B134EB2F57A7F02DA3160F9
:10383000197070BD104A156815B900251D7011600A
:103840004FF496713160E18BA181228CE28120825C
:103850002388C91AE1836188511A2184A188401AFA
:1038600000F58040608470BD6864002070620020B4
:10387000C4010020400000203001002070B5442128
:10388000D020FFF7D3F804464321D020FFF7CEF82D
:1038900004EB0020174C46212083D020FFF7C6F808
:1038A00005464521D020FFF7C1F805EB00206083D5
:1038B0004821D020FFF7BAF805464721D020FFF76E
:1038C000B5F805EB00200C4900B2A0834968B1F5BA
:1038D0007A7F0DDB218B6182628BA282E082E3889A
:1038E000C91A21832189511A61836189401AA083F1
:1038F00070BD00006864002070620020BC2801D305
:10390000012210E0622801D302220CE02A2801D310
:10391000032208E0142801D3042204E00A2801D37A
:10392000052200E006221A21D020FFF767B910B562
:1039300004464FF47A70844201D9044602E0042C14
:1039400000D20424B0FBF4F0401EC2B21921D020F2
:10395000FFF754F96008BDE81040FFF7CFBF7521AD
:10396000D020FFF763B810B580226B21D020FFF77D
:1039700045F9C82006F058FC00226B21D020FFF743
:103980003DF9012000F03AF8002000F02EF8322036
:10399000FFF7CDFF00223821D020FFF72FF90022BA
:1039A0006A21D020FFF72AF900222321D020FFF737
:1039B00025F980223721D020FFF720F97521D0206A
:1039C000FFF734F8682801D0012010BD01226B21D7
:1039D000D020FFF713F900226C21D020FFF70EF959
:1039E0003220FFF7A4FF002010BD08B5022300908D
:1039F00004221C21D020FFF7ABF808BD08B5022334
:103A0000009004221B21D020FFF7A2F808BD00007F
:103A100008B506F05FFC0F4F0D4C4FF47A7507F1B7
:103A2000180807F11E0600900A21684609F0A8FB55
:103A30006068A84207DA4146B81DFFF77DF93146B4
:103A40000448FFF779F9FFF7C3FEFFF717FFEBE72D
:103A50007062002068640020FEE7704730B50F23D5
:103A6000C27801780125FAB1144A126801F1E02107
:103A700002F4E062C2F5E062C2F30722C2F104047C
:103A8000D3404278A24084781C401443220181F83C
:103A90000024007800F01F018D404009800000F1F3
:103AA000E020C0F8005130BD01F01F0085404809FA
:103AB000800000F1E020C0F8805130BD0CED00E046
:103AC0000249084302490860704700000000FA05F7
:103AD0000CED00E010B40021084B0A46002003EB77
:103AE000C004401CC0B262548028F8D3491CC9B23B
:103AF0000829F3D310BC00F0F1B8000064030020E3
:103B00002DE9F0471F4690460E4682460025DDF817
:103B1000209011E03146504600F028F9544607E065
:103B200019F8050001216D1C00F0BAFA641CE4B21A
:103B30004445F5D3761CF6B2BE42EBD3BDE8F08720
:103B400010B57F2816D83F2914D80723A3EBD1033B
:103B500001F00701C1F107040121A140064CDBB2CD
:103B600004EBC000002AC25CC9B201D00A4300E0E5
:103B70008A43C25410BD000064030020F0B516460D
:103B80000D4607460024FFF7DBFF3246294638463C
:103B9000FFF7D6FF2819C1B232463846FFF7D0FFEB
:103BA000641CE4B2082CF5D3F0BD00007CB5012103
:103BB000082000F093FD01268DF8046000244FF4E6
:103BC000F0408DF8064000908DF805408DF80740D4
:103BD00069464048FEF730FC0121080700F096FDD9
:103BE000012000F075FD002000F0FCFD002000F039
:103BF0006FFD394DC5F8B042642005F52C7506F00F
:103C000013FB2E600021AE2000F04AFA0021D520DF
:103C100000F046FA0021502000F042FA0021A820CE
:103C200000F03EFA00213F2000F03AFA0021D320B4
:103C300000F036FA0021084600F032FA0021402058
:103C400000F02EFA00218D2000F02AFA0021142025
:103C500000F026FA0021202000F022FA00210220A4
:103C600000F01EFA0021A12000F01AFA0021C02065
:103C700000F016FA0021DA2000F012FA00211220DA
:103C800000F00EFA0021812000F00AFA0021EF2056
:103C900000F006FA0021D92000F002FA0021F120FC
:103CA00000F0FEF90021DB2000F0FAF900213020BD
:103CB00000F0F6F90021A42000F0F2F90021A6207E
:103CC00000F0EEF90021AF2000F0EAF9FFF702FF63
:103CD0007CBD0000000C02400080414270B5104ED7
:103CE000002505F1B000C0B2002100F0D9F9002193
:103CF000084600F0D5F90021102000F0D1F9002489
:103D000006EBC4000121405D00F0CAF9641CE4B276
:103D1000802CF5D36D1CEDB2082DE2D370BD0000F0
:103D20006403002070B5104E002505F1B000C0B24C
:103D3000002100F0B5F90021084600F0B1F900219A
:103D4000102000F0ADF9002406EBC4000121405D15
:103D500000F0A6F9641CE4B2802CF5D36D1CEDB222
:103D6000022DE2D370BD00006403002010B50446AC
:103D7000B031C8B2002100F093F9102040EA1410CD
:103D8000002100F08DF904F00F00BDE81040002183
:103D900000F086B970B515460E4604460CE02A467A
:103DA0003146204600F0A8F81034E4B2702C02D955
:103DB00000241036F6B2AD1C28780028EFD170BD73
:103DC00070B515460E4604460CE02A46314620469C
:103DD00000F04EF80C34E4B2742C02D900240C36F6
:103DE000F6B2AD1C28780028EFD170BD2DE9F04F58
:103DF000203A98460D468346894602F0FF0A00267F
:103E00002EE0B8F10C0F08D0174901EB0A1000277B
:103E1000845D200607D5099A08E014490AEB4A0098
:103E200001EB8000F3E7099890B10022294658463B
:103E3000FFF786FE6D1C6006EDB2040EA5EB0901CE
:103E4000414507D10BF101004D4600F0FF0B05E0A5
:103E50000122EBE77F1CFFB2082FDAD3761CF6B203
:103E60004645CED3BDE8F08FD2F400085EF00008DE
:103E70002DE9F74F172514781E4B8B46002000EBD9
:103E8000800101EBC00113F81160A6422DD103EBB4
:103E90004109567899F80110B14226D100254FF01A
:103EA000800A09EB0500009990F8028005F00100F6
:103EB00000240BEB550701EBC0062AFA04F010EAC8
:103EC000080F06EB0400F9B2C0B201D0012200E0F5
:103ED0000022FFF735FE641CE4B2082CEDD36D1C04
:103EE000EDB2182DDDD3BDE8FE8F401CC0B2A84254
:103EF000C5D3F8E72C0801082DE9F74F652514789C
:103F00001D4B8B46002000EB001113F81160A642F8
:103F10002DD103EB4109567899F80110B14226D111
:103F200000254FF0800A09EB0500009990F8028007
:103F300005F0010000240BEB550701EBC0062AFA3F
:103F400004F010EA080F06EB0400F9B2C0B201D089
:103F5000012200E00022FFF7F3FD641CE4B2082C0C
:103F6000EDD36D1CEDB2202DDDD3BDE8FE8F401CDE
:103F7000C0B2A842C7D3F8E7C2FA00082DE9FF4F44
:103F800081B00027DDF838B01D46924680463C4699
:103F90004FF001094FEA5B0627E0281B401EC1B223
:103FA0000A2006F0D7FBBAFBF0F00A21B0FBF1F2D1
:103FB00001FB120027B9691E8C4201DA48B10127C2
:103FC0003030C2B206FB0480C0B25B46CDF8009030
:103FD00006E006FB0480C0B25B462022CDF80090CC
:103FE0000299FFF703FF641CE4B2AC42D5D305B0DD
:103FF000BDE8F08FF8B516460D460446012714E0DB
:104000007A2C02D900241035EDB23A2D03D90024C0
:104010002546FFF75FFD009732780C23294620469E
:10402000FFF7E4FE0834E4B2761C30780028E7D1CC
:10403000F8BDF8B516460D460446012714E07A2C63
:1040400002D900241035EDB23A2D03D900242546BB
:10405000FFF740FD00973278102329462046FFF7EE
:10406000C5FE0834E4B2761C30780028E7D1F8BDEC
:1040700030B50A4D00242868C11700EB1170B4EB6D
:10408000201F01DA012200E0002200212046FFF774
:1040900075FD641CE4B2802CEDD330BD5C020020C1
:1040A00030B500230E4A012411B1C2F8AC4201E040
:1040B000C2F8AC320021C2F8B832050602D5C2F807
:1040C000B44201E0C2F8B432C2F8B8424006491C1A
:1040D000000EC9B20829EED3C2F8AC4230BD0000D0
:1040E000008041420B4810B50188491C01800188BD
:1040F00040F6B832914207D90021018003F01AFA44
:1041000005490320087010BDBDE81040034802F0C7
:1041100076BF0000E20200203C5C0020C05C002072
:104120000020044A01461154401CC0B20928FAD3A9
:1041300070470000640700202DE9F8430125074679
:10414000ADF800501B4800264670ADF800501A4CE0
:1041500080464FF6FF7924E0BDF80000384202D0D7
:10416000C4F8B05201E0C4F8B062C4F8A05205200F
:1041700006F076F8C4F8A062052006F071F8C4F8DD
:10418000A052D4F83C0230B198F80110BDF80020DC
:10419000114388F80110BDF8001009EA4100ADF89C
:1041A0000000BDF80000FF28D6D9BDE8F843102074
:1041B00006F056B8640700200000424270B5FFF7D1
:1041C000AFFF00F013F90B480B4AB0F803400A4860
:1041D000103284800020012512F8103000F1010017
:1041E0005B1E05FA03F12142C0B202D01028F3D3BE
:1041F000002070BD640700204800002010B5154C59
:104200000020C4F8A802102004F52A7406F028F84B
:104210000120FFF791FF4320FFF78EFF0020FFF7FB
:104220008BFF0120FFF788FF0020FFF785FF0020AC
:10423000FFF782FF0020FFF77FFF0020FFF77CFFE2
:104240000020FFF779FF01202060BDE8104010201A
:1042500006F006B80000424210B5154C0020C4F824
:10426000A802102004F52A7405F0FAFF0120FFF7D8
:1042700063FF4320FFF760FF0020FFF75DFF002092
:10428000FFF75AFF5A20FFF757FF5A20FFF754FF56
:104290005A20FFF751FF5A20FFF74EFF5A20FFF731
:1042A0004BFF01202060BDE81040102005F0D8BF72
:1042B000000042427CB50121102000F00FFA4FF4BB
:1042C0000040002400908DF8044003208DF8050084
:1042D0000C4E02258DF8075069463046FEF7ACF8C3
:1042E00001218DF804108DF806404FF4A8508DF888
:1042F000055000908DF8071069463046FEF79CF88F
:104300007CBD00000010024010B5FFF757FF00EE23
:10431000100A27482C4BB8EE400A012280ED000A13
:104320002448C17900EE901A2349F8EE600AC1EDE5
:10433000000A017A00EE901A2049F8EE600AC1EDF9
:10434000000A417901EE101A1D49B8EE411A81EDBB
:10435000001A807910EE101A01EE100A1948B1F116
:10436000814FB8EE411A80ED001A184801D101784A
:10437000E1B1D968002918D010EE901A144B994277
:1043800013DA0178002910D112494968B1F57A7F12
:104390000BDB1149027000200870104908701049A9
:1043A0000870104908701049087010BDDA60E3E722
:1043B0005802002064070020480200204C02002020
:1043C000500200205402002048000020D4010020A8
:1043D0000000EC4270620020D6010020D5010020D0
:1043E000D701002040020020410200202DE9FC41BD
:1043F00000268DF800600125ADF80450224CC4F869
:10440000A862224F3878FFF797FE7878FFF794FE7E
:1044100002208DF800001E4F4FF6FF782CE0ADF81B
:1044200004501DE0C4F8A052052005F019FFC4F89F
:10443000A062052005F014FFC4F8A052D4F83C0295
:1044400040B19DF80000BDF80410385C08439DF8A9
:1044500000107854BDF8041008EA4100ADF80400DB
:10446000BDF80400FF28DDD9102005F0F9FE9DF805
:104470000000401C8DF800009DF800000928CED3F4
:10448000C4F8A852BDE8FC81000042424900002067
:104490006407002010B500F00DF800F00BF800F0F4
:1044A00009F8FFF7ABFE00F027F8BDE81040FFF772
:1044B000D3BE000010B50F4C0020C4F8A802102095
:1044C00004F52A7405F0CCFE0120FFF735FE4220EA
:1044D000FFF732FE0020FFF72FFE0020FFF72CFE33
:1044E0000020FFF729FE01202060BDE810401020C9
:1044F00005F0B6BE0000424210B5144C0020C4F8CE
:10450000A802012004F52A74FFF716FE4420FFF7E5
:1045100013FE0020FFF710FE0120FFF70DFE032021
:10452000FFF70AFE0020FFF707FE0020FFF704FE5A
:104530000020FFF701FE0020FFF7FEFD01202060B4
:10454000BDE81040102005F08BBE00000000424284
:10455000F0B44D48D0ED000A9FED4C0A4C486FF086
:10456000130370EE600AFDEEE00A10EE901AD0ED33
:10457000000A484870EE600AFDEEE00A10EE902A4C
:10458000D0ED000A9A4230EE600ABDEEC00A10EE8D
:10459000100A02DD142A00DA0022994202DD1429F1
:1045A00000DA0021984202DD142800DA00203A4D9A
:1045B0003A4C6B795B1CDBB26B710F2B15D100236E
:1045C0006B71374B2646374D1B6896ED000AF1EEAE
:1045D000040AAB4202D130EE200A04E0324DAB4275
:1045E00003D130EE600A84ED000A94ED000AB5EEC6
:1045F000C00AF1EE10FA03D29FED2C0A84ED000AF6
:1046000000EE102A01EE101A02EE100AF8EEC00AAF
:104610009FED270AB8EEC11AB8EEC22A60EE800AF2
:10462000DFED241A21EE001A22EE000A60EEA10A44
:10463000214A21EE211A214B20EE210A2049C2ED08
:10464000000A204883ED001A81ED000A007808B1C5
:10465000012809D1D4ED001A20EE210ADFED1A1A43
:1046600080EE212A81ED002ADFED181A80EEA10AE2
:10467000C1EE210A82ED000AC3ED000A91ED001A95
:10468000F0BCFDF781BA00004802002000000043A2
:104690004C0200205002002064020020C8010020CB
:1046A00058020020000030410000104100000000CE
:1046B000DB0FC93F0000003C200200202402002044
:1046C00028020020C50100200000FA4300007A44BF
:1046D000014908627047000000000E42044A0029A8
:1046E000116801D0014300E0814311607047000070
:1046F00030380240044A0029116801D0014300E02B
:10470000814311607047000034380240044A002998
:10471000116801D0014300E081431160704700003F
:1047200040380240044A0029116801D0014300E0EA
:10473000814311607047000044380240044A002958
:10474000116801D0014300E081431160704700000F
:104750002438024070B5204B1968204C11F00C0130
:1047600004D06610042903D0082903D004601BE09C
:10477000066019E0184A121F1168C1F380551168CC
:1047800001F03F0115B1B6FBF1F101E0B4FBF1F12D
:1047900014681268C4F388146143C2F30142521CC6
:1047A0005200B1FBF2F1016019680F2202EA111107
:1047B0000B4A545C0168E14041601C68072505EA2A
:1047C0009424145D21FA04F484601B6805EA5333D1
:1047D000D25CD140C16070BD083802400024F400B2
:1047E00040010020054900220A700A70012802D009
:1047F000042801D10520087070470000703802407D
:104800000021022807D003280BD004280BD005284C
:104810000BD0002070474FF08042506A516200B2C6
:104820007047044A02E0044A00E0044A106811603C
:1048300000B270472404004024080040240C0040CB
:104840002DE9F0414FF4FA663F4C77103246394675
:10485000206808F043F93D4B20603246394618681D
:1048600008F03CF93A4D186032463946286808F09D
:1048700035F93246374E28603946306808F02EF94F
:104880003060296822686FF06304A1F2DC51A2F263
:10489000DC52A14202DD642900DA0021A24202DDDD
:1048A000642A00DA002200EE101A2B48B8EEC00A83
:1048B000D0ED000A30EE800ABDEEC00A10EE100AFC
:1048C000002800DA0020514200EE101A9FED231A52
:1048D000DFED230AB8EEC00A224B234920EE011A6D
:1048E00081EE200A83ED000A097809B1012909D176
:1048F00001EE100AB8EEC11A20EE010A80EE201A6D
:1049000083ED001A194A1A49907938B19FED190AB6
:10491000401E81ED000A83ED000A9071D1ED000A7E
:104920009FED151A154880EE810A81ED000AD0ED41
:10493000001AC1EE810AC0ED000A93ED001ABDE82D
:10494000F041FDF721B90000900000209400002004
:10495000980000209C000020C8010020DB0FC93F08
:104960000000FA4328020020C50100206402002054
:10497000200200200000000000007A4424020020F1
:1049800010B551EC100B2DED068BB0EE439AF0EE06
:10499000629AB0EE42AAF0EE618AB0EE418A09F066
:1049A000FDFBBDEECA0A154910EE102ABDEEE90A5C
:1049B000086081ED018A10EE103AC1ED058AC1E967
:1049C000022381ED049A9900514300EE101A0C491C
:1049D000B8EEC00A81ED000A9FED0A0A0A4929EEE5
:1049E000000A81ED000A09490860094880ED008A43
:1049F0000848C0ED008ABDEC068B10BDC0620020E7
:104A00002C020020DB0F494030020020340200203D
:104A1000380200203C02002070B5384C4FF4AD70D5
:104A20000A2120600920FDF7CBFE2168344C90FB61
:104A3000F1F0C0B22070052801D905202070C0B265
:104A40009FED303ADFED302A9FED301A062817D25D
:104A5000DFE800F0030C232C333CF0EE411AB1EEFA
:104A6000042A9FED2B1A9FED2B0B07E09FED2B3AAD
:104A7000B1EE042ADFED2A1A9FED2A0BFFF780FF23
:104A8000257804220824294829490723062D30D2F5
:104A9000DFE805F0252830302C30F0EE411AB1EE79
:104AA000042A9FED241A9FED240BE7E7B1EE042AB8
:104AB000F0EE411A9FED220BE0E7F0EE411AB1EE65
:104AC000042A9FED211A9FED210BD7E79FED213A94
:104AD000B1EE042AF0EE411A9FED1F0BCEE7046001
:104AE0000E2005E0062202600A2001E004600B208F
:104AF000086070BD02600B6070BD000014020020F1
:104B0000C50100202B87163E0000FA43000000007C
:104B10007B14AE3D85EB51B81E85DB3F8FC2753DE2
:104B2000643BDF3D0000000000000000E0010020C9
:104B3000E4010020BC74133E000000C01E85DB3F72
:104B4000000000A0EFA7C63FE926313E000000C0EC
:104B50009DEFC73FC520303D000000E07A14CE3FF6
:104B60000121417000220270426002724172418153
:104B7000704700000CB50022274900920192086896
:104B800040F4803008604FF4A043086800F400301F
:104B900001900098401C0090019810B9009898422C
:104BA000F3D10868800334D5012001901A484030C1
:104BB000026842F0805202601848026842F44042A3
:104BC00002601548083002680260026842F4004240
:104BD0000260026842F4A0520260031F104A1A6089
:104BE0000A6842F080720A600A689201FCD50D4999
:104BF00040F205720A60016821F00301016001685A
:104C000041F0020101600168C1F381010229FAD17A
:104C10000CBD01920CBD0000003802400070004045
:104C200008544007003C0240F0B51A4FDDE9056525
:104C3000DFF864C044F29F14002804DA3C6020448A
:104C4000CCF8000003E0CCF80040201A386013488C
:104C5000002903DA44632144816302E08463611A1A
:104C600041630F48002A03DA84631119416302E0AB
:104C70004463A11A8163002B03DA04641919C16328
:104C800002E0C463E11A016406480660001F056083
:104C9000F0BD000034440140344801400040014070
:104CA00000000140381800404F4800B5B0EE412ADE
:104CB0000078F0EE602AB0EE401A10B19FED4B0A7A
:104CC00001E09FED4B0A4B48D0ED001ADFED4A0A98
:104CD000B5EEC01AF1EE10FA02DD71EE801A0EE0A8
:104CE000B5EEC01AF1EE10FA02D271EEC01A06E06B
:104CF000B5EEC01AF1EE10FA03D161EEA01AC0EDC4
:104D0000001A3C49F5EEC02AD1ED011AF1EE10FA75
:104D100002DD71EE801A0EE0F5EEC02AF1EE10FA17
:104D200002D271EEC01A06E0F5EEC02AF1EE10FADA
:104D300003D161EEA01AC0ED011A2E49B5EEC02ACA
:104D4000D1ED021AF1EE10FA02DD31EE800A0EE02A
:104D5000B5EEC02AF1EE10FA02D231EEC00A06E03A
:104D6000B5EEC02AF1EE10FA03D121EEA00A80EDD3
:104D7000020AB0EE410A05F099FAF0EE400AB0EEF0
:104D8000410A05F093FAF1EE401AB0EE601A90ED88
:104D9000000AF0EE610A07F091FE80ED000AB0EE25
:104DA000620A05F083FAB0EE401AB0EE620A05F02E
:104DB0007DFAF1EE400A90ED010A07F07FFE80EDEA
:104DC000010AB0EE420A05F071FAB0EE401AB0EEF8
:104DD000420A05F06BFAF1EE400A90ED020A07F084
:104DE0006DFE80ED020A00BDD4010020CDCC4C3D0B
:104DF0000AD7233CE05B00206666663F4FF0E02167
:104E00000428086903D020F004000861704740F0CE
:104E10000400FAE710B508F059FF012803D0BDE8F7
:104E2000104008F047BC10BD124810B5016841F4AD
:104E3000700101601048016841F0010101600E4AF3
:104E400000210832116002680C4B1A400260031DF9
:104E50000B4A1A60026822F48022026006480C3075
:104E60000160FFF787FE03494FF00060803908605A
:104E700010BD000088ED00E000380240FFFFF6FEA4
:104E80001030002470B5048C24F001040484058BD8
:104E9000048C4FF6FF7606EA0313134325F0F3055F
:104EA0002B4324F00A020A4342F0010103830184E8
:104EB00070BDF0B5048C24F010040484078B068CBC
:104EC0004FF6FF7404EA011527F4734704EA03312F
:104ED000394304EA02220A4326F0A001294341F0A3
:104EE000100102830184F0BD2DE9F0418846074698
:104EF0008AB001210220FFF7F1FB01214804FFF7EE
:104F000011FC1F4E032208213046FDF7D1FA022082
:104F10008DF804000024C0018DF8064001250090A2
:104F20008DF8075003208DF8050069463046FDF7DF
:104F300083FA144EADF808800397ADF81040ADF831
:104F40000A4002A9304600F061FE6020ADF814006E
:104F5000ADF81650ADF8204005A9304600F00AFD26
:104F60000821304600F03CFD0121304600F04AFCAB
:104F70000121304600F056FC0AB0BDE8F081000087
:104F800000040240004401402DE9F04188460746F4
:104F90008AB001210220FFF7A1FB01218804FFF75D
:104FA000C1FB214E032209213046FDF781FA022080
:104FB0008DF80400002400028DF8064001250090C1
:104FC0008DF8075003208DF8050069463046FDF73F
:104FD00033FA164EADF808800397ADF81040ADF8DF
:104FE0000A4002A9304600F011FE6020ADF814001E
:104FF000ADF81650ADF8204005A9304600F0BAFCD7
:105000000821304600F0ECFC0121304600F014FC91
:105010000121304600F0F6FB0121304600F002FC91
:105020000AB0BDE8F08100000004024000480140E1
:105030002DE9F041884606468AB001214020FFF75D
:1050400065FB01210220FFF749FB02208DF81800C3
:105050004FF44040059003208DF819000024264F9E
:105060008DF81A4001258DF81B5005A93846FDF72B
:10507000E3F909220E213846FDF71AFA09220F2119
:105080003846FDF715FA08961C4EADF81C80ADF8B1
:105090002440ADF81E4007A9304600F0B7FD60205F
:1050A000ADF80000ADF802500294ADF80C40ADF838
:1050B00010406946304600F05DFC6946304600F01D
:1050C00095FC0821304600F08BFC0821304600F0AA
:1050D000D7FC0121304600F0AFFB0121304600F043
:1050E000A1FB064940F2DC5038310860091F086016
:1050F0000AB0BDE8F0810000000402400018004042
:105100002DE9F0418846074601218AB00846FFF79D
:1051100009FB01211020FFF7E1FA354E0122092198
:105120003046FDF7C5F901220B213046FDF7C0F9E5
:1051300001220D213046FDF7BBF901220E21304638
:10514000FDF7B6F94FF4D440059002208DF8180011
:1051500003208DF8190000248DF81A4001258DF8E0
:105160001B5005A93046FDF767F9224EADF81C80AB
:105170000897ADF82450ADF81E4007A9304600F05E
:1051800045FD6020ADF80000ADF80250ADF80C40D0
:105190006946304600F0EEFB6946304600F026FCDA
:1051A0006946304600F076FC6946304600F0C0FCA7
:1051B0000121304600F040FB0821304600F010FC91
:1051C0000821304600F05CFC0821304600F0AAFCC3
:1051D0000821304600F0E6FC0121304600F012FBC9
:1051E0000121304600F01EFB0AB0BDE8F08100004E
:1051F00000100240000001404FF08040018A018A07
:1052000021F001010182704703480188018821F0E3
:10521000010101807047000010040040034801882C
:10522000018821F001010180704700001008004052
:1052300003480188018821F00101018070470000C6
:10524000100C004003480188018821F00101018011
:1052500070470000101800402DE9F0479F480024D7
:10526000C169B1F5C86F13DD9D490A7882B99D4ABD
:105270005268B2F57A7F0BDB01220A709A490C70F2
:105280009A490C709A490C709A490C709A490C70A2
:1052900080460078994D000642F20F764FF4FA7777
:1052A00035D40221284600F0F3FA80B302212846C3
:1052B00000F0B5FA98F800004006284645D500F001
:1052C000DFFA80B2A8F80A00B8F8082041469042F8
:1052D00001D28E6300E08C63801A8A6B104488616F
:1052E0008A6A801A00D54042B84207DD0879401C1E
:1052F000C0B20871052801D88A6100E00C71886984
:10530000886288F800400021284600F063FB98F886
:105310000100000643D40421284600F0B9FAA0B3E6
:105320000421284600F07BFA98F801004006284640
:1053300053D500F0A7FA80B2A8F80E00B8F80C1008
:10534000424688420ED2D6630DE000F099FA01463B
:10535000A8F8081098F8001041F0400188F80010F3
:105360000221D1E7D463401AD16B0844D061D16ADD
:10537000401A00D54042B84208DD5079401CC0B206
:105380005071052802D8D16101E008E05471D0695C
:10539000D06288F801400021284600F067FB98F8A9
:1053A0000200000643D40821284600F071FAA0B399
:1053B0000821284600F033FA98F8020040062846F3
:1053C00054D500F061FA80B2A8F81200B8F81010B5
:1053D000424688420ED216640DE000F053FA0146B0
:1053E000A8F80C1098F8011041F0400188F801105D
:1053F0000221D1E71464401A116C08441062116B49
:10540000401A00D54042B84208DD9079401CC0B235
:105410009071052802D8116201E008E09471106AC9
:10542000106388F802400021284600F071FB98F8CC
:105430000300C14600064FD41021284600F028FA88
:10544000002849D01021A846284600F0E8F999F82C
:1054500003004D46400633D5404600F017FA80B2AF
:10546000E882A98A88420ED26E640DE000F00CFA40
:105470000146A8F8101098F8021041F0400188F891
:1054800002100221D0E76C64401A696C084468621B
:10549000696B401A00D54042B84207DDE879401CEC
:1054A000C0B2E871052801D8696200E0EC71686A51
:1054B0006863EC7000214046BDE8F04700F068BB2F
:1054C0004446404600F0E2F9A882E878022140F024
:1054D0004000E8702046EFE7BDE8F0877800002044
:1054E000D601002070620020D5010020D4010020E8
:1054F000D7010020400200204102002000040140AA
:105500002DE9F041884605468AB001210220FFF7C7
:1055100009F901210420FFF7E1F84FF47070022629
:1055200003908DF8106003208DF811000024414F86
:105530008DF812408DF8136003A93846FCF77CFF04
:10554000032206213846FCF7B3FF03220721384621
:10555000FCF7AEFF032208213846FCF7A9FF03221F
:1055600009213846FCF7A4FF334FADF814800695A7
:10557000ADF81C40ADF8164005A9384600F046FBD2
:1055800001250F20ADF80040ADF80450ADF808003B
:10559000ADF80240ADF806406946384600F084F99F
:1055A0000420ADF80000ADF80450ADF80240ADF8AD
:1055B0000640ADF808406946384600F075F9082005
:1055C000ADF80000ADF80450ADF80240ADF806406B
:1055D000ADF808406946384600F066F90C20ADF891
:1055E0000000ADF80450ADF80240ADF80640ADF84B
:1055F00008406946384600F057F92E208DF8200003
:105600008DF821608DF822608DF8235008A8FEF7F0
:1056100025FA01221E21384600F0A4F9012138465E
:1056200000F00AF90121384600F0FCF80AB0BDE8A4
:10563000F081000000080240000401402DE9F04123
:10564000884606468AB001210220FFF76BF8012147
:105650000420FFF743F802208DF818004FF4707013
:10566000059003208DF819000024324F8DF81A4060
:1056700001258DF81B5005A93846FCF7DDFE0322F5
:1056800006213846FCF714FF032207213846FCF7B1
:105690000FFF032208213846FCF70AFF03220921E5
:1056A0003846FCF705FF0896234EADF81C80ADF890
:1056B0002440ADF81E4007A9304600F0A7FA60204C
:1056C000ADF80000ADF802500294ADF80C40ADF812
:1056D00010406946304600F04DF96946304600F00A
:1056E00085F96946304600F0D5F96946304600F044
:1056F0001FFA0821304600F073F90821304600F007
:10570000BFF90821304600F00DFA0821304600F0BC
:1057100049FA00221E21304600F024F901213046CA
:1057200000F08AF80121304600F07CF80AB0BDE8AC
:10573000F081000000080240000401400248018896
:1057400021F0010101807047100401402DE9F04370
:105750008946804601218BB00804FEF7E3FF012152
:105760001020FEF7BBFF254F032205213846FCF72A
:105770009FFE032206213846FCF79AFE02208DF890
:10578000180003208DF81900002460268DF81A40B7
:10579000012505968DF81B5005A93846FCF74CFEEF
:1057A000174FADF81C90CDF82080ADF82440ADF82F
:1057B0001E4007A9384600F029FAADF80060ADF8A0
:1057C0000250ADF80C406946384600F0D3F86946FF
:1057D000384600F00BF90821384600F001F908219D
:1057E000384600F04DF90121384600F00BF8012150
:1057F000384600F017F80BB0BDE8F0830010024007
:10580000004001400029018802D041F0800101E000
:1058100021F0800101807047C94301827047C9436C
:10582000018270470029018802D041F0010101E0A6
:1058300021F0010101807047002930F8441F02D097
:1058400041F4004101E0C1F30E010180704770B5E1
:105850000589048B068C25F007050D434FF6FC41A6
:105860000C4040F201110C434FF6FF7101EA0311A5
:1058700026F022061143314305810483018470BD63
:10588000406B7047806B7047C06B7047006C70470F
:1058900002460020138A92890B4202EA010202D0DA
:1058A000002A00D0012070472DE9F0410C460E88F7
:1058B0004988A2882389054616B3042E28D0082ECD
:1058C0002E8C4FF6FF702BD026F480562E84AF8B93
:1058D0002E8C00EA022200EA013127F473473A4392
:1058E00000EA0330104326F420420A4342F4805178
:1058F000A8832984E1882846BDE8F04100F07AB900
:10590000FFF7C0FAE1882846BDE8F04100F056B93B
:10591000FFF7CFFAE1882846BDE8F04100F056B91C
:1059200026F480762E84AF8B2E8C00EA012100EACB
:105930000310104327F0F307384326F420620A438C
:1059400042F48071A8832984E1882846BDE8F041AB
:1059500000F048B900210180418001228280C1808D
:1059600001817047002A828901D00A4300E08A43FE
:105970008281704730B5028C22F001020284028CD1
:105980008388048B22F0020224F073050C882C43D8
:105990008D8915434A882A430C4DA84202D00C4DEC
:1059A000A8420DD122F00805CA8923F440732A4386
:1059B00022F004058A882A430D8A1D434B8A2B4313
:1059C0008380048389684163028430BD0000014004
:1059D00000040140028C22F002020A430284704754
:1059E000028B22F008020A430283704770B5028CD2
:1059F00022F010020284028C8388048B0D8824F428
:105A0000E6464FF6FF7404EA052535438E8922F0F9
:105A1000200204EA061616434A8804EA02123243B8
:105A2000104EB04202D0104EB04215D122F0800686
:105A3000CA8923F4406304EA0212324322F040068A
:105A40008A8804EA021232430E8A04EA86061E435A
:105A50004B8A04EA83033343838005838968816327
:105A6000028470BD0000014000040140028C4FF62A
:105A7000FF7322F0200203EA0111114301847047F1
:105A8000028B4FF6FF7322F4006203EA01211143F7
:105A90000183704770B5028C22F480720284028CFC
:105AA0008388848B0D8824F0730425438E894FF6F8
:105AB000FF7422F4007204EA062616434A8804EAB8
:105AC00002223243104EB04202D0104EB04215D1E5
:105AD00022F40066CA8923F4405304EA02223243C6
